:020000040800F2
:10000000D023002055020008BD4B0008E94000083D
:10001000B94B0008D9050008C15E000800000000C7
:10002000000000000000000000000000314C00084B
:1000300045070008000000002D4C0008894C00080E
:100040006F0200086F0200086F0200086F020008CC
:100050006F0200086F0200086F0200086F020008BC
:100060006F0200086F0200086F0200086F020008AC
:10007000DD0500086F020008ED0500086F020008AA
:100080006F0200086F0200086F0200086F0200088C
:100090006F0200086F0200086F0200086F0200087C
:1000A0006F0200086F0200086F0200086F0200086C
:1000B0006F0200086F0200086F0200086F0200085C
:1000C0006F0200086F0200086F0200086F0200084C
:1000D0006F0200086F0200086F02000881580008D4
:1000E0006F0200086F0200086F0200086F0200082C
:1000F0006F0200086F0200086F0200086F0200081C
:100100006F0200086F0200086F0200086F0200080B
:100110006F0200086F0200086F0200086F020008FB
:100120006F0200086F0200086F0200086F020008EB
:100130006F0200086F0200086F0200086F020008DB
:100140006F0200086F0200086F0200086F020008CB
:100150006F0200086F0200086F0200086F020008BB
:100160006F0200086F0200086F0200086F020008AB
:100170006F0200086F0200086F0200080000000014
:100180006F0200086F02000800F002F800F052F859
:1001900014A696E8000CB244B344DA4501D100F04D
:1001A00049F8BAE80F000FA696E83000A5EB040561
:1001B00004EB0607AAEB0704A7F101074FEA1515A0
:1001C0004FEA3414A4F10104AC4201D300F032F838
:1001D00013F0010F18BFFB1A43F0010300F001F800
:1001E000DBE71847A45E0000C45E0000103A24BF9D
:1001F00078C878C1FAD8520724BF30C830C144BF8C
:1002000004680C6070470000704700000023002461
:1002100000250026103A28BF78C1FBD8520728BF16
:1002200030C148BF0B6070471FB505F010FF1FBD00
:1002300010B510BD00F0D5F81146FFF7F5FF05F039
:10024000A1FE00F0F3F803B4FFF7F2FF03BC00F0E7
:10025000F7F800000948804709480047FEE7FEE735
:10026000FEE7FEE7FEE7FEE7FEE7FEE7FEE7FEE766
:1002700004480549054A064B704700004D4D0008EB
:1002800089010008D00B0020D0230020D01B0020C3
:10029000D01B002053EA020C00F069802DE9F04BDE
:1002A0004FF00006002B1FBFB3FA83F503FA05F4E5
:1002B00024FA05F65E4012BF1643B2FA82F502FA3E
:1002C00005F4C5F120051EBF22FA05FC44EA0C0422
:1002D000203556EA044C4FEA144418BF641C4FF012
:1002E00000084FF00009904271EB030C39D300294C
:1002F00019BFB1FA81F701FA07F6B0FA80F700FAF0
:1003000007F6C7F120071EBF20FA07FC46EA0C06D5
:100310002037B6FBF4FCA7EB0507103F07F01F0BD7
:10032000CBF120062CFA06F60CFA0BFB44BFB346C1
:100330000026202FA4BF5E464FF0000B5BEA060CA0
:1003400008BF4FF0010B19EB0B0948EB0608ABFB9C
:10035000027C06FB02CC0BFB03CCC01B71EB0C0137
:10036000C1E70B46024641464846BDE8F08B13B54F
:10037000084318BF4FF0FF300146AFF30080BDE8DF
:100380001C4070474FF0000200B513469446964655
:10039000203922BFA0E80C50A0E80C50B1F1200198
:1003A000BFF4F7AF090728BFA0E80C5048BF0CC046
:1003B0005DF804EB890028BF40F8042B08BF7047A4
:1003C00048BF20F8022B11F0804F18BF00F8012B16
:1003D0007047704770477047004870471000002012
:1003E00070477546FFF7F8FFAE460500694653466D
:1003F00020F00700854618B020B5FFF739FFBDE8AB
:1004000020404FF000064FF000074FF000084FF07B
:10041000000BAC46ACE8C009ACE8C009ACE8C009C8
:10042000ACE8C00921F007018D46704710B50446BD
:10043000AFF300802046BDE81040FFF704BF000086
:1004400001491820ABBEFEE72600020082B00190F1
:1004500042F20030C4F2010000900099486820F494
:1004600040304860019842680099486810434860ED
:1004700001980168486820F480704860019801681C
:100480000269486840EA02204860019801684868AB
:1004900020F0407048600198016882684868104305
:1004A000486001980168886820F4006088600198BD
:1004B0000168C2688868104388600198806A0121D9
:1004C000C0F60071884219D0FFE70198016888687A
:1004D00020F07060886001980168826A8868104323
:1004E000886001980168886820F040508860019811
:1004F0000168C26A8868104388600CE0019801684E
:10050000886820F07060886001980168886820F031
:1005100040508860FFE701980168886820F0020079
:1005200088600198027E0168886840EA420088601D
:10053000019890F82000C8B1FFE701980168486869
:1005400040F40060486001980168486820F4604009
:10055000486001980168426A4EF20000CFF6FF70D1
:1005600000EB423248681043486006E00198016899
:10057000486820F400604860FFE701980168C86A95
:1005800020F47000C86201980168C2690020CFF6AB
:10059000F07000EB0252C86A1043C862019801680B
:1005A000886820F400708860019890F83020016815
:1005B000886840EA4220886001980168886820F4D1
:1005C00080608860019801684269886840EA8220FA
:1005D000886002B070470000FFE7FEE780B540F298
:1005E0005410C2F2000000F0C7FC80BD80B540F29C
:1005F000B410C2F2000000F0BFFC80BD82B00190D8
:100600000198007810384AF6AB21CAF6AA21A0FB5F
:10061000011000090090009946F28000C0F6000029
:10062000405C0199C8650098042807D3FFE7019949
:100630000868042262F30900886506E001990868E9
:1006400040F2FF3290438865FFE70198806D02B069
:100650007047000086B0059000208DF813000598C3
:10066000806A03900598806910BBFFE703980290A9
:1006700003281BD80299DFE801F0020D0218059843
:1006800090F82F00C00720B1FFE701208DF813007C
:10069000FFE70CE00598C06AB0F1C07F04D1FFE726
:1006A00001208DF81300FFE701E000E0FFE745E0DF
:1006B00005988069B0F5005F25D1FFE703980190A8
:1006C00003281ED80199DFE801F00206021101207B
:1006D0008DF8130016E0059890F82F00C00720B1A0
:1006E000FFE701208DF81300FFE70BE00598C06AD3
:1006F000B0F1C07F04D1FFE701208DF81300FFE7C0
:1007000000E0FFE719E003980090032804D3FFE717
:100710000098032804D00EE001208DF813000BE0B0
:10072000059890F82F00C00720B1FFE701208DF851
:100730001300FFE700E0FFE7FFE7FFE79DF8130086
:1007400006B070477047000072B6FFE7FEE7000092
:1007500085B00390029100200190FFE7039890F884
:100760003C00012804D1FFE702208DF81300F7E0D8
:100770000399012081F83C00FFE7FFE70298006839
:100780000A281CD3FFE70298008800EB4000A0F184
:100790001E01072000FA01F203980168C86890431F
:1007A000C86002998868098801EB41011E3900FA86
:1007B00001F203980168C8681043C86018E0029805
:1007C000008800EB4001072000FA01F2039801685D
:1007D00008699043086102998868098801EB410122
:1007E00000FA01F203980168086910430861FFE705
:1007F0000298406806281BD8FFE70298406800EB83
:100800008000411F1F2000FA01F203980168486B25
:100810009043486302990888496801EB81010539D2
:1008200000FA01F203980168486B104348633DE009
:10083000029840680C281CD8FFE70298406800EB3B
:100840008000A0F123011F2000FA01F20398016843
:10085000086B9043086302990888496801EB81019D
:10086000233900FA01F203980168086B104308630A
:100870001BE00298406800EB8000A0F141011F20BE
:1008800000FA01F203980168C86A9043C8620299AD
:100890000888496801EB8101413900FA01F20398A7
:1008A0000168C86A1043C862FFE7FFE742F2003000
:1008B000C4F2010000900398006842F20001C4F203
:1008C000010188420BD1FFE702980068122806D187
:1008D000FFE70099486840F480004860FFE703980C
:1008E000006842F20001C4F2010188422ED1FFE704
:1008F00002980068102805D0FFE7029800681128C8
:1009000024D1FFE70099486840F40000486002984D
:100910000068102819D1FFE740F20000C2F2000081
:1009200000684DF68361C4F21B31A0FB0110800CFE
:1009300000EB800040000190FFE7019820B1FFE745
:10094000019801380190F8E7FFE7FFE7FFE7039917
:10095000002081F83C00FFE700208DF81300FFE73E
:100960009DF8130005B0704780B584B00290002058
:100970008DF80700029820B9FFE701208DF80F00DD
:1009800042E00298806A0121C0F60071884201D0DD
:10099000FFE7FFE70298006C50B9FFE7029800F00C
:1009A00037F8029900204864029981F83C00FFE77B
:1009B0000298006CC006002817D4FFE70298006C6C
:1009C00040F0020020F48850029908640298FFF772
:1009D0003DFD0299002048640298006C40F001003F
:1009E00020F002000299086403E001208DF807005E
:1009F000FFE7FFE70299002081F83C00FFE79DF840
:100A000007008DF80F00FFE79DF80F0004B080BDD0
:100A100080B58AB009900020089007900690059054
:100A200004900998006842F20001C4F20101884272
:100A300030D1FFE7FFE70020039043F64400C4F203
:100A40000200016841F480710160006800F4807068
:100A500003900398FFE7FFE70020029043F6300081
:100A6000C4F20200016841F004010160006800F076
:100A7000040002900298FFE73F20049003200590B5
:100A80000020069040F60000C4F2020004A900F025
:100A9000DDFC39E00998006842F20011C4F201015E
:100AA000884230D1FFE7FFE70020019043F6440081
:100AB000C4F20200016841F400710160006800F4B2
:100AC000007001900198FFE7FFE70020009043F6D7
:100AD0003000C4F20200016841F0040101600068C6
:100AE00000F0040000900098FFE73F2004900320EE
:100AF00005900020069040F60000C4F2020004A910
:100B000000F0A4FCFFE7FFE70AB080BD80B584B029
:100B10000290029820B9FFE701208DF80F00E0E075
:100B2000029890F8200020B9FFE7029800F0DEF864
:100B3000FFE702980168086840F00100086000F0D3
:100B400079FE0190FFE7029800684068C007A8B9E5
:100B5000FFE700F06FFE0199401A0B280DD3FFE765
:100B60000299486A40F4003048620299052081F8F1
:100B7000200001208DF80F00B3E0E4E7029801683F
:100B8000086820F00200086000F054FE0190FFE7C2
:100B90000298006840688007002815D5FFE700F03C
:100BA00049FE0199401A0B280DD3FFE70299486AC4
:100BB00040F4003048620299052081F820000120AD
:100BC0008DF80F008DE0E3E70298007E012807D141
:100BD000FFE702980168086840F08000086006E0BE
:100BE00002980168086820F080000860FFE702981A
:100BF000407E012807D1FFE702980168086840F0AD
:100C00004000086006E002980168086820F0400093
:100C10000860FFE70298807E012807D1FFE702986D
:100C20000168086840F02000086006E0029801684A
:100C3000086820F020000860FFE70298C07E0128C5
:100C400007D1FFE702980168086820F010000860EB
:100C500006E002980168086840F010000860FFE7AD
:100C60000298007F012807D1FFE702980168086811
:100C700040F00800086006E002980168086820F06B
:100C800008000860FFE70298407F012807D1FFE7CE
:100C900002980168086840F00400086006E00298C5
:100CA0000168086820F004000860FFE7029B1968EB
:100CB0005A689868D3F80CC040EA0C00D3F810C00A
:100CC00040EA0C005B691843013A1043C86102997D
:100CD00000204862029A012182F820108DF80F004E
:100CE000FFE79DF80F0004B080BD000080B58CB018
:100CF0000B9000200A9009900890079006900B989E
:100D0000006846F20041C4F2000188423FD1FFE78B
:100D100040F27000C2F20000016801310160006819
:100D2000012812D1FFE7FFE70020059043F64000BD
:100D3000C4F20200016841F000710160006800F037
:100D4000007005900598FFE7FFE7FFE7002004909B
:100D500043F63000C4F20200016841F0080101606E
:100D6000006800F0080004900498FFE70320069054
:100D70000221079100210891099009200A9040F66C
:100D80000040C4F2020006A900F060FB5AE00B9894
:100D9000006846F60001C4F20001884251D1FFE725
:100DA000FFE70020039043F64000C4F20200016810
:100DB00041F080610160006800F08060039003985A
:100DC000FFE740F27000C2F20000016801310160EB
:100DD0000068012812D1FFE7FFE70020029043F6E8
:100DE0004000C4F20200016841F000710160006837
:100DF00000F0007002900298FFE7FFE7FFE7002095
:100E0000019043F63000C4F20200016841F0020193
:100E10000160006800F0020001900198FFE7602087
:100E200006900220079000200890032009900920D6
:100E30000A9040F20040C4F2020006A900F006FB4E
:100E4000FFE7FFE70CB080BD80B584B00290029848
:100E5000806D019000F0EEFC0090029890F8350053
:100E600002280DD0FFE7029980204865FFE702992C
:100E7000002081F83400FFE701208DF80F0055E0D5
:100E800002980168086820F016000860029801685E
:100E9000486920F0800048610298006C20B9FFE7A3
:100EA0000298806C38B1FFE702980168086820F06A
:100EB00008000860FFE702980168086820F0010058
:100EC0000860FFE7029800680068C007C8B1FFE744
:100ED00000F0B0FC0099401A062811D3FFE70299F0
:100EE000202048650299032081F83500FFE7029928
:100EF000002081F83400FFE703208DF80F0015E093
:100F0000E0E70298C16D3F2088400199886002990E
:100F1000012081F83500FFE70299002081F83400B4
:100F2000FFE7FFE700208DF80F00FFE79DF80F00B7
:100F300004B080BD82B00090009890F8350002287F
:100F400007D0FFE700998020486501208DF8070051
:100F50000EE00099052081F83500009801680868C6
:100F600020F001000860FFE700208DF80700FFE790
:100F70009DF8070002B0704780B586B0059000204C
:100F8000039040F20000C2F20000006848F2B51180
:100F9000C1F64E31A0FB0110800A02900598806DC9
:100FA000019001980068049004980599C96DC840A3
:100FB000000700281AD5FFE7059800680068400779
:100FC000002812D5FFE705980168086820F00400A2
:100FD00008600598C16D08208840019988600599CE
:100FE000486D40F001004865FFE7FFE70498059968
:100FF000C96DC840C007A0B1FFE705980068406907
:10100000000600280CD5FFE70598C16D0120884037
:10101000019988600599486D40F002004865FFE736
:10102000FFE704980599C96DC8404007002814D50A
:10103000FFE7059800680068800700280CD5FFE7E7
:101040000598C16D04208840019988600599486D14
:1010500040F004004865FFE7FFE704980599C96D73
:10106000C840C006002847D5FFE70598006800681B
:10107000000700283FD5FFE70598C16D1020884084
:1010800001998860059800680068400300281AD517
:10109000FFE70598006800680003002809D4FFE70F
:1010A0000598006C20B1FFE70598016C8847FFE7C1
:1010B00008E00598806C20B1FFE70598816C8847AF
:1010C000FFE7FFE716E0059800680068C005002804
:1010D00007D4FFE705980168086820F00800086059
:1010E000FFE70598006C20B1FFE70598016C884781
:1010F000FFE7FFE7FFE7FFE704980599C96DC840E0
:101100008006002840F18D80FFE7059800680068A0
:10111000C006002840F18480FFE70598C16D2020BB
:10112000884001998860059890F83500052834D1E9
:10113000FFE705980168086820F016000860059828
:101140000168486920F0800048610598006C20B96A
:10115000FFE70598806C38B1FFE7059801680868DB
:1011600020F008000860FFE70598C16D3F20884027
:10117000019988600599012081F83500FFE70599FC
:10118000002081F83400FFE70598006D20B1FFE7EB
:101190000598016D8847FFE77BE0059800680068C7
:1011A000400300281AD5FFE705980068006800038F
:1011B000002809D4FFE70598406C20B1FFE70598A7
:1011C000416C8847FFE708E00598C06B20B1FFE756
:1011D0000598C16B8847FFE7FFE720E005980068A6
:1011E0000068C005002811D4FFE705980168086869
:1011F00020F0100008600599012081F83500FFE714
:101200000599002081F83400FFE7FFE70598C06BDF
:1012100020B1FFE70598C16B8847FFE7FFE7FFE7CD
:10122000FFE70598406DA0B3FFE70598406DC00744
:1012300030B3FFE70599052081F83500059801686E
:10124000086820F001000860FFE703980130039070
:101250000299884201D9FFE707E0FFE70598006897
:101260000068C0070028F0D1FFE70599012081F848
:101270003500FFE70599002081F83400FFE7FFE71C
:101280000598C06C20B1FFE70598C16C8847FFE75F
:10129000FFE706B080BD000080B586B00490002056
:1012A000039000F0C7FA0290049820B9FFE70120EC
:1012B0008DF81700A3E00498406A08B1FFE7FFE744
:1012C0000499022081F83500FFE70499002081F895
:1012D0003400FFE704980168086820F00100086006
:1012E000FFE7049800680068C00790B1FFE700F0CE
:1012F000A1FA0299401A06280AD3FFE70499202090
:1013000048650499032081F835008DF8170076E0D0
:10131000E7E70498006800680390039848F23F01EB
:10132000CFF2100108400390049900914868D1F869
:1013300008C0CB680A6940EA0C00184310434A69A8
:1013400010438A691043CA691043096A014303982C
:10135000084303900498406A042808D1FFE70499E1
:10136000C86A096B0143039808430390FFE7039899
:10137000049909680860049800684069039003981C
:1013800020F0070003900498416A039808430390F3
:101390000498406A04281AD1FFE70498816A0398E8
:1013A000084303900498C06A80B1FFE70498FFF7F0
:1013B00051F950B1FFE70499402048650499012094
:1013C00081F835008DF8170019E0FFE7FFE7039873
:1013D0000499096848610498FFF710F9019004988E
:1013E000C16D3F20884001998860049900204865BC
:1013F000049A012182F835108DF81700FFE79DF857
:10140000170006B080BD000080B584B0039000F0E6
:1014100011FA0290039801900198013048B1FFE75A
:1014200040F20400C2F200000178019808440190E3
:10143000FFE7FFE700F0FEF90299401A01998842A0
:1014400001D2FFE7F6E704B080BD00008EB00D903A
:101450000C9100200A90099008900B90FFE70B98E0
:101460000F2800F2CC81FFE70B99012088400A90F9
:101470000C9800680A990840099009980A998842CE
:1014800040F0B881FFE70C98406800F003000128A5
:1014900007D0FFE70C98406800F0030002282FD126
:1014A000FFE70D98806808900B984100032000FA30
:1014B00001F10898884308900C98C0680B9949007E
:1014C00000FA01F108980843089008980D9988607F
:1014D0000D98406808900B99012000FA01F10898D6
:1014E000884308900C984068C0F300100B9900FAEC
:1014F00001F108980843089008980D994860FFE7A3
:101500000C98406800F00300032818D0FFE70D98FE
:10151000C06808900B984100032000FA01F1089878
:10152000884308900C9880680B99490000FA01F1F3
:1015300008980843089008980D99C860FFE70C9830
:10154000406800F00300022826D1FFE70D980B99B0
:101550006FF0030202EA51010844006A08900B98F8
:1015600000F0070081000F2000FA01F1089888437D
:1015700008900C9800690B9901F00701890000FAA6
:1015800001F108980843089008980D990B9B02EA0E
:10159000530211440862FFE70D98006808900B9809
:1015A0004100032000FA01F10898884308900C9844
:1015B000406800F003000B99490000FA01F1089817
:1015C0000843089008980D9908600C988079800766
:1015D000002800F00E81FFE7FFE70020079043F6A8
:1015E0004400C4F20200016841F4804101600068D7
:1015F00000F4804007900798FFE70B9820F0030065
:1016000043F60801C4F20101405808900B9800F01D
:10161000030081000F2000FA01F108988843089028
:101620000D980021C4F20201884203D1FFE7002097
:1016300006905EE00D9840F20041C4F2020188423B
:1016400003D1FFE70120059050E00D9840F600011E
:10165000C4F20201884203D1FFE70220049042E075
:101660000D9840F60041C4F20201884203D1FFE721
:101670000320039034E00D9841F20001C4F202010E
:10168000884203D1FFE70420029026E00D9841F242
:101690000041C4F20201884203D1FFE70520019016
:1016A00018E00D9841F60001C4F20201884203D10E
:1016B000FFE7062000900AE00D9941F60042C4F2CF
:1016C00002020820914208BF07200090FFE700981F
:1016D0000190FFE701980290FFE702980390FFE76F
:1016E00003980490FFE704980590FFE7059806909B
:1016F000FFE70698C0B20B9901F00301890000FAD8
:1017000001F108980843089008980B9921F003010B
:1017100043F60802C4F20102885043F60840C4F2BE
:1017200001000068089009990898884308900C986F
:101730008079C006002805D5FFE709990898084375
:101740000890FFE7089843F60841C4F201010860D9
:1017500043F60C40C4F2010000680890099908980B
:10176000884308900C9880798006002805D5FFE70B
:101770000999089808430890FFE7089843F60C4138
:10178000C4F20101086043F60440C4F2010000689D
:10179000089009990898884308900C9880798007E8
:1017A000002805D5FFE70999089808430890FFE746
:1017B000089843F60441C4F20101086043F6004072
:1017C000C4F20100006808900999089888430890BD
:1017D0000C988079C00728B1FFE709990898084359
:1017E0000890FFE7089843F60041C4F20101086041
:1017F000FFE7FFE7FFE70B9801300B902FE60EB0F5
:101800007047000082B00190ADF802108DF8012001
:101810009DF8010028B1FFE7BDF802000199886139
:1018200005E0BDF80200000401998861FFE702B0FD
:101830007047000040F6CC30C2F2000000687047EC
:1018400080B58EB00C900C9820B9FFE701208DF880
:10185000370043E10C9890F83D0040B9FFE70C9940
:10186000002081F83C000C9800F03CF9FFE70C994F
:10187000242081F83D000C980168086820F00100E0
:1018800008600C980168086840F4004008600C98F3
:101890000168086820F40040086000F073FD0A90B9
:1018A0000C98406848F2A061C0F2010188420BD850
:1018B000FFE70A9948F28042C0F21E0200209142DE
:1018C00038BF012009900AE00A9940F60012C0F2E0
:1018D0003D020020914238BF01200990FFE709989E
:1018E000012804D1FFE701208DF83700F6E00A98BF
:1018F0004DF68361C4F21B31A0FB0110800C0B90EC
:101900000C980068406820F03F000B9908430C9940
:10191000096848600C980068006A20F03F00089051
:101920000C98406848F2A061C0F20101884204D8D6
:10193000FFE70B98013007900EE00B984FF496717B
:10194000484344F6D351C1F26201A0FB01010120DA
:1019500000EB91100790FFE70898079908430C994E
:10196000096808620C980068C0694CF6FF718843EA
:1019700006900C98406848F2A061C0F201018842CC
:101980001FD8FFE70A9801380C9949684900B0FB55
:10199000F1F001306FF31F30032803D8FFE7042074
:1019A00005900BE00A9801380C9949684900B0FB92
:1019B000F1F001306FF31F300590FFE705980490B8
:1019C0004CE00C98806868B9FFE70A9801380C99D8
:1019D000496801EB4101B0FBF1F001306FF31F30BA
:1019E00003900DE00A9801380C9949681922514377
:1019F000B0FBF1F00130042161F31F300390FFE7E9
:101A00000398000518B9FFE70120029023E00C9825
:101A1000806868B9FFE70A9801380C99496801EBBA
:101A20004101B0FBF1F001306FF31F3001900DE088
:101A30000A9801380C99496819225143B0FBF1F01A
:101A40000130042161F31F300190FFE7019840F459
:101A500000400290FFE702980490FFE7069804997F
:101A600008430C990968C8610C980068006820F068
:101A7000C0000C9B1968DA691B6A1A43104308609E
:101A80000C980068806848F2FF3188430C9A11680E
:101A9000D36812691A43104388600C980068C068C4
:101AA00020F0FF000C9B19685A699B691A43104388
:101AB000C8600C980168086840F0010008600C9943
:101AC000002008640C9A202182F83D100C990863CC
:101AD0000C9981F83E008DF83700FFE79DF837003C
:101AE0000EB080BD80B592B01190002010900F9084
:101AF0000E900D900C901198006845F20041C4F2D0
:101B00000001884235D1FFE7FFE700200B9043F644
:101B10003000C4F20200016841F002010160006877
:101B200000F002000B900B98FFE74FF4C0700C9090
:101B300012200D9000200E9003200F900420109092
:101B400040F20040C4F202000CA9FFF77FFCFFE75F
:101B500000200A9043F64000C4F20200016841F4FC
:101B600000110160006800F400100A900A98FFE775
:101B7000A7E01198006845F60001C4F20001884210
:101B800035D1FFE7FFE70020099043F63000C4F2AB
:101B90000200016841F002010160006800F00200EB
:101BA00009900998FFE74FF440600C9012200D90C7
:101BB00000200E9003200F900420109040F200406F
:101BC000C4F202000CA9FFF741FCFFE700200890D7
:101BD00043F64000C4F20200016841F48001016054
:101BE000006800F4800008900898FFE768E011980A
:101BF000006845F60041C4F2000188425FD1FFE76A
:101C0000FFE70020079043F63000C4F202000168AD
:101C100041F004010160006800F00400079007989B
:101C2000FFE7FFE70020069043F63000C4F2020011
:101C3000016841F001010160006800F001000690B8
:101C40000698FFE74FF400700C90122000900D9062
:101C5000002001900E90032002900F90042003902A
:101C6000109040F60000C4F202000CA90491FFF7A6
:101C7000EDFBDDF800C0019B029A039804994FF434
:101C8000807ECDF830E0CDF834C00E930F921090E6
:101C90000020C4F20200FFF7D9FBFFE70020059007
:101CA00043F64000C4F20200016841F40001016003
:101CB000006800F4000005900598FFE7FFE7FFE7E4
:101CC000FFE712B080BD000040F20400C2F2000045
:101CD000027840F6CC31C2F2000108681044086076
:101CE0007047000080B543F60041C4F20201086865
:101CF00040F400700860086840F48060086008687C
:101D000040F480700860032000F08AF80F2000F093
:101D100005F800F03BF8002080BD000080B582B0DF
:101D2000009040F20000C2F20000006840F204019E
:101D3000C2F200010A784FF47A71B1FBF2F1B0FB04
:101D4000F1F001F05FF820B1FFE701208DF8070006
:101D500018E000980F280DD8FFE700994FF0FF30EA
:101D6000002200F043F8009840F20801C2F200019E
:101D7000086003E001208DF8070003E000208DF8E3
:101D80000700FFE79DF8070002B080BD82B0FFE7C3
:101D90000020019043F64400C4F20200016841F4BF
:101DA00080410160006800F4804001900198FFE7E5
:101DB000FFE70020009043F64000C4F202000168F3
:101DC00041F080510160006800F080500090009860
:101DD000FFE702B07047000080B582B08DF80700C1
:101DE0009DF9070004F06EF802B080BD80B586B0A2
:101DF0008DF81700049103920020029004F07AF805
:101E000002909DF91700019002980499039A02F03C
:101E1000D7FE0146019804F075F806B080BD0000B9
:101E200080B582B00190019804F08EF802B080BDB8
:101E300080B58EB00C900C9820B9FFE701208DF88A
:101E4000370012E10C9800680B900C9890F89504FC
:101E500040B9FFE70C99002081F894040C9800F039
:101E600009F9FFE70C99032081F895040B98B0F16C
:101E7000A04F04D1FFE70C9900208871FFE70C9870
:101E8000006803F011FF0C9B1868197C8DF8241072
:101E900059689A68DB680893079206910699079A31
:101EA000089BDDF824C0EE46CEF800C003F0F0FC3D
:101EB00040B1FFE70C99022081F8950401208DF8CC
:101EC0003700D2E00C980068002103F077FF40B1A2
:101ED000FFE70C99022081F8950401208DF8370066
:101EE000C3E000208DF82B00FFE79DF82B000C9934
:101EF0000979884241DAFFE70C989DF82B1001EB35
:101F0000C10100EB8101012048759DF82B000C995F
:101F100000EBC00201EB820108759DF82B000C99C3
:101F200000EBC00201EB8201C8850C989DF82B10D4
:101F300001EBC10100EB8101002008760C999DF8AE
:101F40002B2002EBC20201EB8201C8610C999DF8C3
:101F50002B2002EBC20201EB820108620C999DF872
:101F60002B2002EBC20201EB82014862FFE79DF8E1
:101F70002B0001308DF82B00B7E700208DF82B00E7
:101F8000FFE79DF82B000C99097988423EDAFFE7BC
:101F90000C989DF82B1001EBC10100EB8101002092
:101FA00081F855029DF82B100C9A01EBC10302EB4E
:101FB000830282F854120C999DF82B2002EBC20286
:101FC00001EB820181F858020C999DF82B2002EB5D
:101FD000C20201EB8201C1F85C020C999DF82B2032
:101FE00002EBC20201EB8201C1F860020C999DF87C
:101FF0002B2002EBC20201EB8201C1F86402FFE771
:102000009DF82B0001308DF82B00BAE70C9B186867
:10201000197C8DF8141059689A68DB680493039250
:1020200002910299039A049BDDF814C0EE46CEF8A3
:1020300000C003F0EBFC40B1FFE70C99022081F8EF
:10204000950401208DF837000FE00C9900200190D5
:1020500048740C99012081F895040C98006803F0ED
:10206000BFFC01988DF83700FFE79DF837000EB0F0
:1020700080BD000080B588B00790002006900590D4
:1020800004900390029007980068B0F1A04F3ED1F1
:10209000FFE7FFE70020019043F63000C4F20200A2
:1020A000016841F001010160006800F00100019049
:1020B0000198FFE74FF4C0500290022003900020E7
:1020C0000490032005900A2006900020C4F202002C
:1020D00002A9FFF7BBF9FFE743F63401C4F202019E
:1020E000086840F080000860FFE70020009043F699
:1020F0004400C4F20200016841F4804101600068BC
:1021000000F4804000900098FFE7FFE7FFE708B089
:1021100080BD000080B584B002900191029820B982
:10212000FFE701208DF80F0021E1019843F60041FF
:10213000C4F20201096801F00701884212D9FFE7E1
:10214000019943F60040C4F202000170006800F0FB
:1021500007000199884204D0FFE701208DF80F00A5
:1021600005E1FFE702980078800700282AD5FFE7FD
:10217000029800784007002809D5FFE743F60801D8
:10218000C4F20201086840F4E0500860FFE70298DA
:1021900000780007002809D5FFE743F60801C4F2DC
:1021A0000201086840F460400860FFE743F6080158
:1021B000C4F20201086820F0F000029A926810430D
:1021C0000860FFE702980078C00700286ED0FFE79C
:1021D00002984068012811D1FFE743F60000C4F2DD
:1021E0000200006800F400310020B0EB514F04D130
:1021F000FFE701208DF80F00B9E02CE0029840685D
:10220000022805D0FFE702984068032811D1FFE7B4
:1022100043F60000C4F20200006800F000710020E4
:10222000B0EB516F04D1FFE701208DF80F009EE065
:1022300010E043F60000C4F20200006800F0020162
:102240000020B0EB510F04D1FFE701208DF80F0003
:102250008DE0FFE7FFE743F60801C4F202010868DA
:1022600020F00300029A526810430860FFF7E2FA78
:102270000090FFE743F60800C4F20200006800F097
:102280000C0002994968B0EB810F0ED0FFE7FFF711
:10229000D1FA0099401A41F28931884204D3FFE70C
:1022A00003208DF80F0062E0E4E7FFE7019843F6B2
:1022B0000041C4F20201096801F00701884212D20C
:1022C000FFE7019943F60040C4F202000170006884
:1022D00000F007000199884204D0FFE701208DF843
:1022E0000F0044E0FFE702980078400700280CD573
:1022F000FFE743F60801C4F20201086820F4E05049
:10230000029AD26810430860FFE70298007800073D
:1023100000280DD5FFE743F60801C4F20201086862
:1023200020F46040029A126940EAC2000860FFE7A8
:1023300000F04CF843F60801C4F202010968C9B282
:102340000A0946F26801C0F60001895CC84040F203
:102350000001C2F20001086040F20800C2F2000071
:102360000068FFF7DBFC00208DF80F00FFE79DF809
:102370000F0004B080BD000040F20000C2F2000077
:102380000068704780B5FFF7F7FF43F60801C4F215
:1023900002010968C1F3822246F27801C0F6000109
:1023A000895CC84080BD000080B5FFF7E5FF43F6BB
:1023B0000801C4F20201096889B24A0B46F27801A9
:1023C000C0F60001895CC84080BD000080B586B0C1
:1023D0000020059004900390029043F60800C4F298
:1023E0000200006800F00C000146019140B1FFE7D7
:1023F000019804280AD0FFE7019808280CD04FE084
:1024000042F20040C0F2F40002904FE043F200605C
:10241000C0F26E10029049E043F60400C4F20200DC
:10242000016801F03F01059100684002002813D5C2
:10243000FFE743F60400C4F202000068C0F388100E
:1024400043F20061C0F26E11A0FB0101059A002366
:10245000FDF720FF049012E043F60400C4F20200EE
:102460000068C0F3881042F20041C0F2F401A0FB02
:102470000101059A0023FDF70DFF0490FFE743F6E5
:102480000400C4F20200006800F44031022000EBB6
:10249000D130039004980399B0FBF1F0029005E06D
:1024A00042F20040C0F2F4000290FFE7029806B04A
:1024B00080BD000080B586B00490049820B9FFE785
:1024C00001208DF8170050E304980078C007002819
:1024D00000F0A580FFE743F60800C4F202000068A0
:1024E00000F00C00042813D0FFE743F60800C4F204
:1024F0000200006800F00C0008281ED1FFE743F638
:102500000400C4F2020000684002002815D5FFE76D
:1025100043F60000C4F20200006800F4003100201D
:10252000B0EB514F08D0FFE70498406820B9FFE7AF
:1025300001208DF8170018E370E0FFE70498406869
:10254000B0F5803F09D1FFE743F60001C4F2020174
:10255000086840F48030086020E004984068B0F5D6
:10256000A02F0DD1FFE743F60001C4F20201086875
:1025700040F480200860086840F4803008600CE077
:1025800043F60001C4F20201086820F480300860BC
:10259000086820F480200860FFE7FFE7FFE7049861
:1025A0004068E8B1FFE7FFF745F90390FFE743F61E
:1025B0000000C4F20200006800F400310020B0EB1B
:1025C000514F0CD1FFE7FFF735F90399401A652801
:1025D00004D3FFE703208DF81700C6E2E7E71CE00D
:1025E000FFF728F90390FFE743F60000C4F202006A
:1025F000006800F400310020B0EB514F0CD0FFE731
:10260000FFF718F90399401A652804D3FFE7032060
:102610008DF81700A9E2E7E7FFE7FFE7FFE7049877
:1026200000788007002840F19680FFE743F6080015
:10263000C4F20200006810F00C0F13D0FFE743F65D
:102640000800C4F20200006800F00C0008282CD139
:10265000FFE743F60400C4F20200006840020028CD
:1026600023D4FFE743F60000C4F20200006800F044
:1026700002010020B0EB510F09D0FFE70498C068B9
:10268000012804D0FFE701208DF817006DE243F622
:102690000001C4F20201086820F0F800049A1269EF
:1026A00040EAC2000860FFE754E00498C06870B3D5
:1026B000FFE70021C4F2472101200860FFF7BAF8C4
:1026C0000390FFE743F60000C4F20200006800F048
:1026D00002010020B0EB510F0CD1FFE7FFF7AAF881
:1026E0000399401A032804D3FFE703208DF817004D
:1026F0003BE2E7E743F60001C4F20201086820F07C
:10270000F800049A126940EAC200086021E0002142
:10271000C4F2472100200860FFF78CF80390FFE720
:1027200043F60000C4F20200006800F0020100203D
:10273000B0EB510F0CD0FFE7FFF77CF80399401A7C
:10274000032804D3FFE703208DF817000DE2E7E725
:10275000FFE7FFE7FFE704980078000700284BD564
:10276000FFE70498406918B3FFE740F68061C4F2C0
:10277000472101200860FFF75DF80390FFE743F66B
:102780007400C4F20200006800F002010020B0EB07
:10279000510F0CD1FFE7FFF74DF80399401A0328BA
:1027A00004D3FFE703208DF81700DEE1E7E722E01E
:1027B00040F68061C4F2472100200860FFF73AF834
:1027C0000390FFE743F67400C4F20200006800F0D3
:1027D00002010020B0EB510F0CD0FFE7FFF72AF801
:1027E0000399401A032804D3FFE703208DF817004C
:1027F000BBE1E7E7FFE7FFE7049800784007002820
:1028000040F1CE80FFE700208DF8070043F640003E
:10281000C4F202000068C000002815D4FFE7FFE7FB
:102820000020009043F64000C4F20200016841F02D
:1028300080510160006800F0805000900098FFE730
:1028400001208DF80700FFE747F20000C4F2000006
:102850000068C005002822D4FFE747F20001C4F257
:102860000001086840F480700860FEF7E3FF039001
:10287000FFE747F20000C4F200000068C00500282E
:102880000CD4FFE7FEF7D6FF0399401A032804D3C0
:10289000FFE703208DF8170067E1EAE7FFE7FFE7AE
:1028A00004988068012809D1FFE743F67001C4F25B
:1028B0000201086840F0010008601FE00498806889
:1028C00005280DD1FFE743F67001C4F20201086844
:1028D00040F004000860086840F0010008600CE067
:1028E00043F67001C4F20201086820F0010008609C
:1028F000086820F004000860FFE7FFE7FFE704989E
:102900008068F8B1FFE7FEF795FF0390FFE743F615
:102910007000C4F20200006800F002010020B0EB79
:10292000510F0ED1FFE7FEF785FF0399401A41F2E0
:102930008931884204D3FFE703208DF8170014E1A2
:10294000E5E71EE0FEF776FF0390FFE743F6700031
:10295000C4F20200006800F002010020B0EB510F49
:102960000ED0FFE7FEF766FF0399401A41F2893166
:10297000884204D3FFE703208DF81700F5E0E5E770
:10298000FFE79DF80700012809D1FFE743F6400162
:10299000C4F20201086820F080500860FFE7FFE7FA
:1029A00004988069002800F0DC80FFE743F6080007
:1029B000C4F20200006800F00C00082800F08580D6
:1029C000FFE70498806902285CD1FFE76021C4F228
:1029D000472100200860FEF72DFF0390FFE743F634
:1029E0000000C4F20200006800F000710020B0EBAB
:1029F000516F0CD0FFE7FEF71DFF0399401A032823
:102A000004D3FFE703208DF81700AEE0E7E7049951
:102A1000C869D1F820C04B6A8A6A40EA0C0040EAD3
:102A20008310D2034FF6FF739A43A2F5803210430E
:102A3000C96A40EA016043F60401C4F20201086079
:102A40006021C4F2472101200860FEF7F3FE0390E5
:102A5000FFE743F60000C4F20200006800F00071D6
:102A60000020B0EB516F0CD1FFE7FEF7E3FE0399B6
:102A7000401A032804D3FFE703208DF8170074E001
:102A8000E7E721E06021C4F2472100200860FEF75B
:102A9000D1FE0390FFE743F60000C4F20200006895
:102AA00000F000710020B0EB516F0CD0FFE7FEF793
:102AB000C1FE0399401A032804D3FFE703208DF8D1
:102AC000170052E0E7E7FFE74AE004988069012831
:102AD00004D1FFE701208DF8170046E043F604001B
:102AE000C4F202000068029004988069012831D085
:102AF000FFE7029800F480000499C969884229D14F
:102B0000FFE7029800F03F000499096A884221D14A
:102B1000FFE7029847F6C07108400499496AB0EB94
:102B2000811F17D1FFE7029800F440300499896AA9
:102B3000C9034FF6FF729143A1F58031884209D154
:102B4000FFE7029800F070600499C96AB0EB016F6A
:102B500004D0FFE701208DF8170006E0FFE7FFE74C
:102B6000FFE700208DF81700FFE79DF8170006B07B
:102B700080BD000080B584B00290029820B9FFE7C4
:102B800001208DF80F0072E00298406A60B9FFE7FB
:102B900002984068B0F5827F01D1FFE703E0029917
:102BA0000020C861FFE705E0029900200861029952
:102BB0004861FFE7029900208862029890F851006E
:102BC00040B9FFE70299002081F85000029800F018
:102BD00053F8FFE70299022081F85100029801683A
:102BE000086820F040000860029A0192116850685D
:102BF000D2F808C0D36800F482700CF4044C60442E
:102C000003F400631844136903F002031844536982
:102C100003F001031844936903F400731844D36963
:102C200003F038031844136A03F080031843926AD0
:102C300002F4005210430860029801688369426AF6
:102C4000042000EA134002F0100210444860029889
:102C50000168C86920F40060C861029900204865D5
:102C6000029A012182F851108DF80F00FFE79DF8BC
:102C70000F0004B080BD000080B58CB00B90002028
:102C80000A9009900890079006900B98006843F20C
:102C90000001C4F20101884233D1FFE7FFE70020C1
:102CA000059043F64400C4F20200016841F48051EB
:102CB0000160006800F4805005900598FFE7FFE789
:102CC0000020049043F63000C4F20200016841F095
:102CD00001010160006800F0010004900498FFE722
:102CE000E020069002200790002008900320099021
:102CF00005200A900020C4F2020006A9FEF7A6FBF8
:102D00007DE00B98006843F60001C4F200018842A0
:102D100035D1FFE7FFE70020039043F64000C4F2FF
:102D20000200016841F480410160006800F48040C5
:102D300003900398FFE7FFE70020029043F630007E
:102D4000C4F20200016841F002010160006800F075
:102D5000020002900298FFE74FF420400690022004
:102D60000790002008900320099005200A9040F267
:102D70000040C4F2020006A9FEF768FB3EE00B9893
:102D8000006843F60041C4F20001884235D1FFE7F4
:102D9000FFE70020019043F64000C4F20200016802
:102DA00041F400410160006800F400400190019886
:102DB000FFE7FFE70020009043F63000C4F2020076
:102DC000016841F004010160006800F00400009017
:102DD0000098FFE74FF4E050069002200790002093
:102DE00008900320099006200A9040F60000C4F2E3
:102DF000020006A9FEF72AFBFFE7FFE7FFE70CB09A
:102E000080BD000080B582B00190019801F012FFF2
:102E100002B080BD85B003900291FFE7039890F85F
:102E20003C00012804D1FFE702208DF813007EE06A
:102E30000399012081F83C00FFE7FFE70399022096
:102E400081F83D000398006840680190039800688D
:102E500080680090019820F070000190029801684D
:102E60000198084301900198039909684860039804
:102E700000680021C4F2010188423CD0FFE70398BA
:102E80000068B0F1804F36D0FFE70398006840F249
:102E90000041C4F2000188422DD0FFE7039800688A
:102EA00040F60001C4F20001884224D0FFE70398F5
:102EB000006840F60041C4F2000188421BD0FFE7E1
:102EC0000398006840F20041C4F20101884212D028
:102ED000FFE70398006844F20001C4F20101884250
:102EE00009D0FFE70398006841F60001C4F2000131
:102EF00088420ED1FFE7009820F0800000900298F1
:102F00004168009808430090009803990968886018
:102F1000FFE70399012081F83D00FFE703990020B6
:102F200081F83C00FFE700208DF81300FFE79DF8D3
:102F3000130005B07047000080B582B00090009883
:102F400020B9FFE701208DF807003FE0009890F8D6
:102F50003D0040B9FFE70099002081F83C0000984F
:102F600000F038F8FFE70099022081F83D00009951
:102F700051F8040B01F0F4FE0099012081F846009D
:102F8000FFE70099012081F83E00009981F83F0099
:102F9000009981F84000009981F84100FFE7FFE7C0
:102FA0000099012081F84200009981F843000099BE
:102FB00081F84400009981F84500FFE7009901205D
:102FC00081F83D0000208DF80700FFE79DF807001D
:102FD00002B080BD84B003900398006840F20041C5
:102FE000C4F20001884212D1FFE7FFE700200290FF
:102FF00043F64000C4F20200016841F002010160A2
:10300000006800F0020002900298FFE737E00398A2
:10301000006840F60041C4F20001884212D1FFE787
:10302000FFE70020019043F64000C4F2020001686F
:1030300041F008010160006800F00800019001986B
:10304000FFE71BE00398006844F20001C4F20101AD
:10305000884212D1FFE7FFE70020009043F64400CA
:10306000C4F20200016841F480310160006800F49C
:10307000803000900098FFE7FFE7FFE7FFE704B02C
:103080007047000080B586B00490039100208DF851
:103090000B00FFE7049890F83C00012804D1FFE7FB
:1030A00002208DF81700ABE00499012081F83C0064
:1030B000FFE7FFE70499022081F83D0004980068CB
:1030C00080680190019820F077000190019820F429
:1030D0007F4001900198049909688860039800680E
:1030E0000090002872D0FFE7009810286ED0FFE70C
:1030F000009820286AD0FFE70098302866D0FFE7C4
:103100000098402855D0FFE70098502837D0FFE7B7
:103110000098602840D0FFE7009870280BD0FFE7A8
:103120000098B0F5805F05D0FFE70098B0F5005F2C
:1031300016D052E055E004980068039B5A689968DD
:10314000DB6801F0E5FE0498006880680190019852
:1031500040F077000190019804990968886040E088
:1031600004980068039B5A689968DB6801F0D0FEF8
:1031700004980168886840F48040886031E00498D1
:103180000068039A5168D26802F0AEF804980068AB
:10319000502101F0D7FE24E004980068039A51689A
:1031A000D26802F0C9F804980068602101F0CAFEF4
:1031B00017E004980068039A5168D26802F094F806
:1031C00004980068402101F0BDFE0AE00498006800
:1031D0000399096801F0B6FE03E001208DF80B00A9
:1031E000FFE70499012081F83D00FFE704990020E2
:1031F00081F83C00FFE79DF80B008DF81700FFE712
:103200009DF8170006B080BD80B586B0049003918C
:10321000049820B9FFE701208DF8170088E0049892
:1032200090F83D0040B9FFE70499002081F83C0088
:10323000049800F081F8FFE70499022081F83D002E
:1032400004980168886844F20702904388600499F2
:1032500051F8040B01F084FD049800688068029026
:10326000049800688069019004980068006A0090E2
:1032700003980168029808430290019840F20331D4
:103280008843019003998868896940EA012101987F
:1032900008430190019840F60C4188430190019841
:1032A0004FF2F001884301900399C868C96940EA68
:1032B000012101980843019003990869096A0001F6
:1032C00040EA0131019808430190009820F0220063
:1032D0000090009820F088000090039948684969A0
:1032E00040EA011100980843009002980499096887
:1032F00088600198049909688861009804990968B0
:1033000008620499012081F84600049981F83E0082
:10331000049981F83F00049981F84200049981F8EA
:103320004300049981F83D0000208DF81700FFE765
:103330009DF8170006B080BD80B590B00F900020BA
:103340000E900D900C900B900A900F980068B0F1C1
:10335000804F5AD1FFE7FFE70020099043F6400075
:10336000C4F20200016841F001010160006800F050
:10337000010009900998FFE7FFE70020089043F655
:103380003000C4F20200016841F0010101600068F0
:1033900000F0010008900898FFE7FFE70020079081
:1033A00043F63000C4F20200016841F002010160FE
:1033B000006800F0020007900798FFE74FF4004014
:1033C0000A90022001900B90002002900C900D902A
:1033D000012003900E900020C4F202000AA904917B
:1033E000FEF734F8019B029A039804994FF0080CF9
:1033F000CDF828C00B930C920D920E9040F2004035
:10340000C4F20200FEF722F83CE00F98006840F694
:103410000001C4F20001884233D1FFE7FFE700203A
:10342000069043F64000C4F20200016841F0040136
:103430000160006800F0040006900698FFE7FFE7CF
:103440000020059043F63000C4F20200016841F00C
:1034500008010160006800F0080005900598FFE78A
:103460004FF440500A9002200B9000210C910D91D6
:103470000E9040F60040C4F202000AA9FDF7E6FFF4
:10348000FFE7FFE710B080BD80B58AB0099000204B
:10349000089007900690059004900998006840F203
:1034A0000041C4F20001884221D1FFE7FFE700207C
:1034B000039043F63000C4F20200016841F00201BB
:1034C0000160006800F0020003900398FFE71320FA
:1034D000049002200590002106910791089040F287
:1034E0000040C4F2020004A9FDF7B0FF55E00998BE
:1034F000006840F60041C4F20001884220D1FFE795
:10350000FFE70020029043F63000C4F20200016899
:1035100041F001010160006800F001000290029892
:10352000FFE70C20049002200590002106910791EE
:1035300008900020C4F2020004A9FDF787FF2BE0E9
:103540000998006844F20001C4F20101884222D1C6
:10355000FFE7FFE70020019043F63000C4F20200CD
:10356000016841F010010160006800F01000019056
:103570000198FFE76020049002200590002006904B
:1035800007900320089041F20000C4F2020004A951
:10359000FDF75CFFFFE7FFE7FFE70AB080BD000033
:1035A00080B586B004900391029200208DF8070048
:1035B000FFE7049890F83C00012804D1FFE70220BF
:1035C0008DF8170089E00499012081F83C00FFE79D
:1035D000FFE7029800900C2800F270800099DFE865
:1035E00001F0076D6D6D206D6D6D3A6D6D6D530061
:1035F00004980068039901F0BBFC0498016888698D
:1036000040F00800886104980168886920F004008F
:103610008861039802690498016888691043886189
:1036200050E004980068039901F018FD04980168BF
:10363000886940F40060886104980168886920F412
:10364000806088610398026904980168886940EA8B
:103650000220886136E004980068039901F078FD43
:1036600004980168C86940F00800C86104980168BE
:10367000C86920F00400C8610398026904980168D1
:10368000C8691043C8611DE004980068039901F0FF
:10369000D9FD04980168C86940F40060C8610498C5
:1036A0000168C86920F48060C861039802690498C1
:1036B0000168C86940EA0220C86103E001208DF872
:1036C0000700FFE7FFE70499002081F83C00FFE7CF
:1036D0009DF807008DF81700FFE79DF8170006B06A
:1036E00080BD000080B582B00090009820B9FFE74F
:1036F00001208DF807003FE0009890F83D0040B9A8
:10370000FFE70099002081F83C00009800F038F8AD
:10371000FFE70099022081F83D00009951F8040B61
:1037200001F01EFB0099012081F84600FFE7009997
:10373000012081F83E00009981F83F00009981F84E
:103740004000009981F84100FFE7FFE70099012060
:1037500081F84200009981F84300009981F8440003
:10376000009981F84500FFE70099012081F83D00AC
:1037700000208DF80700FFE79DF8070002B080BD2C
:1037800081B0009001B0704782B00190ADF8021096
:1037900002B0704781B0009001B0704780B592B020
:1037A0001190119800680068109011980068C06826
:1037B0000F901198006840690E9000200D900C90B9
:1037C000109800F00F000D900D9888B9FFE79DF854
:1037D0004000800600280AD5FFE79DF83C008006DF
:1037E000002804D5FFE7119801F03EFEEAE1FFE76B
:1037F0000D98002800F0C280FFE79DF83800C00750
:1038000038B9FFE7BDF83C0010F4907F00F0B680B7
:10381000FFE79DF84000C00758B1FFE79DF83D0065
:10382000C00730B1FFE71199486C40F001004864CF
:10383000FFE79DF84000400700280BD5FFE79DF803
:103840003800C00730B1FFE71199486C40F0020022
:103850004864FFE79DF84000800700280BD5FFE78C
:103860009DF83800C00730B1FFE71199486C40F06F
:1038700004004864FFE79DF840000007002811D5C8
:10388000FFE79DF83C008006002805D4FFE79DF87F
:103890003800C00730B1FFE71199486C40F00800CC
:1038A0004864FFE71198406C002866D0FFE79DF858
:1038B0004000800600280AD5FFE79DF83C008006FE
:1038C000002804D5FFE7119801F0CEFDFFE711981D
:1038D00000684069C0F380100C901198406C00079C
:1038E000002804D4FFE70C9800283ED0FFE7119889
:1038F00001F05CFD119800684069400600282FD552
:10390000FFE7FFE7FFE71198006850E8050F20F098
:1039100040000B90FFE70B991198026842E80510F0
:103920000028F0D1FFE7FFE71198C06B98B1FFE7DF
:103930001198C16B45F28D30C0F6000008651198F2
:10394000C06BFDF7F7FA28B1FFE71198C06B016D66
:103950008847FFE703E01198FFF71CFFFFE703E04C
:103960001198FFF717FFFFE706E01198FFF712FF26
:10397000119900204864FFE7FFE723E11198006BED
:10398000012840F0FF80FFE79DF84000C0060028B6
:1039900040F1F880FFE79DF83C00C006002840F1A8
:1039A000F180FFE7FFE700200A90119800680068A7
:1039B0000A901198006840680A900A98FFE71198E9
:1039C000006840694006002840F18280FFE71198B6
:1039D000C06B00684068ADF82600BDF826000028DE
:1039E00075D0FFE7BDF826001199898D88426EDAFF
:1039F000FFE7BDF826001199C8851198C06BC06912
:103A0000B0F5807F58D0FFE7FFE7FFE71198006827
:103A100050E8030F20F480700890FFE70899119890
:103A2000026842E803100028F0D1FFE7FFE7FFE754
:103A3000FFE71198006850E8050F20F0010007909B
:103A4000FFE707991198026842E805100028F0D1B5
:103A5000FFE7FFE7FFE7FFE71198006850E8050F71
:103A600020F040000690FFE706991198026842E8AE
:103A700005100028F0D1FFE7FFE71199202081F819
:103A80004200119900200863FFE7FFE711980068E2
:103A900050E8030F20F010000590FFE705991198FA
:103AA000026842E803100028F0D1FFE7FFE7119811
:103AB000C06BFDF7C9F9FFE711990220486311981F
:103AC000818DC28D891A89B2FFF75EFEFFE779E02A
:103AD0001199888DC98D401AADF812001198C08DCA
:103AE00000284ED0FFE7BDF81200002849D0FFE7BC
:103AF000FFE7FFE71198006850E8030F20F490708B
:103B00000390FFE703991198026842E80310002828
:103B1000F0D1FFE7FFE7FFE7FFE71198006850E803
:103B2000050F20F001000290FFE70299119802684A
:103B300042E805100028F0D1FFE7FFE711992020A7
:103B400081F84200119900200863FFE7FFE7119810
:103B5000006850E8030F20F010000190FFE7019982
:103B60001198026842E803100028F0D1FFE7FFE750
:103B70001199022048631198BDF81210FFF704FE56
:103B8000FFE71FE09DF84000000600280AD5FFE788
:103B90009DF83C000006002804D5FFE7119801F0CD
:103BA000B7FD0FE09DF84000400600280AD5FFE76A
:103BB0009DF83C004006002804D5FFE7119801F06D
:103BC0003FFCFFE712B080BD80B582B00090009846
:103BD00020B9FFE701208DF8070040E000988069D8
:103BE00008B1FFE700E0FFE7009890F8410040B916
:103BF000FFE70099002081F84000009800F034F8B9
:103C0000FFE70099242081F8410000980168C86806
:103C100020F40050C860009801F0DCFC00980168B6
:103C2000086920F49040086100980168486920F014
:103C30002A00486100980168C86840F40050C860D4
:103C4000009900204864009A202182F84110009ACF
:103C500082F84210009948638DF80700FFE79DF84D
:103C6000070002B080BD000080B594B01390002022
:103C70001290119010900F900E901398006844F6D7
:103C80000041C4F20001884232D1FFE7FFE7002083
:103C90000D9043F64000C4F20200016841F4002197
:103CA0000160006800F400200D900D98FFE7FFE729
:103CB00000200C9043F63000C4F20200016841F08D
:103CC00001010160006800F001000C900C98FFE712
:103CD00003200E9002210F910021109111900820D5
:103CE00012900020C4F202000EA9FDF7AFFB58E1CC
:103CF0001398006841F20001C4F20101884234D1F6
:103D0000FFE7FFE700200B9043F64400C4F20200F7
:103D1000016841F010010160006800F010000B9094
:103D20000B98FFE7FFE700200A9043F63000C4F24B
:103D30000200016841F001010160006800F001002B
:103D40000A900A98FFE74FF4C0600E9002200F908F
:103D50000020109003201190072012900020C4F240
:103D600002000EA9FDF772FB1AE11398006844F2F5
:103D70000041C4F20001884234D1FFE7FFE7002090
:103D8000099043F64000C4F20200016841F400319A
:103D90000160006800F4003009900998FFE7FFE730
:103DA0000020089043F63000C4F20200016841F0A0
:103DB00008010160006800F0080008900898FFE71B
:103DC00060200E9002200F90002010900320119090
:103DD0000720129040F60040C4F202000EA9FDF741
:103DE00035FBDCE01398006844F60001C4F20001E2
:103DF000884240F09580FFE7FFE70020079043F6F8
:103E00004000C4F20200016841F4802101600068B2
:103E100000F4802007900798FFE7FFE70020069056
:103E200043F63000C4F20200016841F0080101606D
:103E3000006800F0080006900698FFE74FF4407015
:103E40000E9002200F9000200290109003201190FD
:103E50000720129040F60040C4F202000EA9FDF7C0
:103E6000F5FA029940F2B410C2F20000039046F253
:103E70005802C4F2020202604FF000624260402227
:103E80008260C1604FF48062026141618161C16101
:103E90004FF4003202624162FDF7FEF918B1FFE70C
:103EA000FCF752FCFFE7FFE7139840F2B411C2F2AF
:103EB0000001816313988863FFE740F25410C2F257
:103EC0000000019046F22801C4F2020101604FF0A7
:103ED0000061416000218160C1604FF48062026135
:103EE00041618161C16101624162FDF7D5F918B19B
:103EF000FFE7FCF729FCFFE7FFE7139840F25411B6
:103F0000C2F20001C16313988863FFE72720009085
:103F100000221146FDF76AFF0098FDF75DFF3DE0C6
:103F20001398006841F20041C4F20101884234D183
:103F3000FFE7FFE70020059043F64400C4F20200CB
:103F4000016841F020010160006800F02000059048
:103F50000598FFE7FFE70020049043F63000C4F225
:103F60000200016841F004010160006800F00400F3
:103F700004900498FFE7C0200E9002200F900020CC
:103F80001090032011900820129040F60000C4F217
:103F900002000EA9FDF75AFAFFE7FFE7FFE7FFE788
:103FA000FFE714B080BD000081B0009001B0704701
:103FB00080B58AB008900791ADF81A2005930020CB
:103FC0000290089890F84100202840F08180FFE797
:103FD000079820B1FFE7BDF81A0020B9FFE70120DC
:103FE0008DF8270078E0089900204864089921207E
:103FF00081F84100FDF71EFC0290BDF81A000899F7
:104000008884BDF81A000899C88408988068B0F5BB
:10401000805F09D1FFE70898006928B9FFE7002011
:1040200004900798039004E0079804900020039000
:10403000FFE7FFE70898C08C78B3FFE70898029B7A
:1040400005996A4611608021002201F0ABFB40B166
:10405000FFE70899202081F8410003208DF8270010
:104060003AE0049858B9FFE7039800886FF35F209F
:1040700008990968486003980230039008E00498A2
:104080000078089909684860049801300490FFE7B7
:104090000899C88C0138C884CCE70898029B059918
:1040A0006A4611604021002201F07CFB40B1FFE72D
:1040B0000899202081F8410003208DF827000BE0AB
:1040C0000899202081F8410000208DF8270003E0A6
:1040D00002208DF82700FFE79DF827000AB080BD79
:1040E00081B0009001B07047FFE7FEE780B586B071
:1040F00000220092059204920392029240F2740010
:10410000C2F20000019042F20001C4F2010101601C
:104110004FF48031416082600261027680F8202095
:10412000C2620121C0F600718162C2600121C161D9
:1041300080F830204161FCF717FC18B1FFE7FCF76D
:1041400003FBFFE70A200290012003900020049067
:1041500040F27400C2F2000002A9FCF7F9FA18B1AB
:10416000FFE7FCF7F1FAFFE706B080BD80B586B047
:1041700000220092059204920392029240F2BC0047
:10418000C2F20000019042F20011C4F2010101608C
:104190004FF48031416082600261027680F8202015
:1041A000C2620121C0F600718162C2600121C16159
:1041B00080F830204161FCF7D7FB18B1FFE7FCF72E
:1041C000C3FAFFE70A200290012003900020049028
:1041D00040F2BC00C2F2000002A9FCF7B9FA18B123
:1041E000FFE7FCF7B1FAFFE706B080BD80B582B00B
:1041F00040F20410C2F20000009046F20041C4F206
:104200000001016003214160002101918160C160D2
:104210004FF4102202614FF40012426101764176A0
:104220008176C17601774177FCF770FC18B1FFE722
:10423000FCF78AFAFFE702B080BD000080B582B0CB
:1042400040F22C10C2F20000009046F60001C4F2C9
:104250000001016003214160002101918160C16082
:104260004FF4102202614FF4001242610176417650
:104270008176C17601774177FCF748FC18B1FFE7FA
:10428000FCF762FAFFE702B080BD000080B584B0A1
:10429000FFE70020039043F63000C4F202000168FB
:1042A00041F400110160006800F4001003900398CD
:1042B000FFE70C200090002201921146FDF796FDC9
:1042C0000098FDF789FD019A0E2002901146FDF736
:1042D0008DFD0298FDF780FD04B080BD80B596B0DD
:1042E000002015901490139012901190FFE7002079
:1042F000109043F63000C4F20200016841F0100152
:104300000160006800F0100010901098FFE7FFE7D0
:1043100000200F9043F63000C4F20200016841F023
:1043200080010160006800F080000F900F98FFE7A7
:10433000FFE700200E9043F63000C4F2020001684F
:1043400041F004010160006800F004000E900E9836
:10435000FFE7FFE700200D9043F63000C4F20200B3
:10436000016841F001010160006800F001000D905A
:104370000D98FFE7FFE700200C9043F63000C4F2F1
:104380000200016841F002010160006800F00200D3
:104390000C900C98FFE7FFE700200B9043F63000ED
:1043A000C4F20200016841F008010160006800F0F9
:1043B00008000B900B98FFE70020C4F20200029067
:1043C0001021019100220892FDF71CFA089A41F28F
:1043D0000000C4F2020004904FF480610391FDF7E5
:1043E00011FA089A40F20040C4F2020006904FF41D
:1043F000A0410591FDF706FA089A40F60040C4F284
:10440000020009904CF29041FDF7FCF9019A0298E4
:10441000089911920122079212921391149111A9F5
:104420000A91FDF713F8DDF80CC00498079B089A71
:104430000A99CDF844C0129313921492FDF706F82E
:10444000DDF814C00698079B089A0A99CDF844C075
:10445000129313921492FCF7F9FF079B089A09989C
:104460000A994FF4444CCDF844C01293139214921D
:10447000FCF7ECFF089A09980A990C2311934FF462
:10448000881312931392FCF7E1FF079B089A09988F
:104490000A994FF0900CCDF844C012931392022267
:1044A0001492FCF7D3FF16B080BD000080B582B037
:1044B00040F21420C2F20000019045F20041C4F223
:1044C0000001016048F2A061C0F2010141600021D9
:1044D0008160C1604FF48042026141618161C161CC
:1044E0000162FDF7ADF918B1FFE7FCF72DF9FFE721
:1044F00002B080BD80B582B040F26820C2F20000F8
:10450000019045F60001C4F20001016048F2A0618B
:10451000C0F20101416000218160C1604FF480421E
:10452000026141618161C1610162FDF789F918B1E0
:10453000FFE7FCF709F9FFE702B080BD80B582B064
:1045400040F2BC20C2F20000019045F60041C4F2E6
:104550000001016048F2A061C0F201014160002148
:104560008160C1604FF48042026141618161C1613B
:104570000162FDF765F918B1FFE7FCF7E5F8FFE721
:1045800002B080BD80B582B040F2F470C2F200008B
:10459000009043F20001C4F2010101604FF4827106
:1045A0004160002101918160C160016141614FF46E
:1045B00000728261C1610162416281620A21C1624D
:1045C000FEF7D8FA18B1FFE7FCF7BEF8FFE702B034
:1045D00080BD000080B582B040F64C00C2F2000001
:1045E000019043F60001C4F2000101604FF48271B2
:1045F00041604FF4004181600021C160016141616F
:104600004FF400728261C1610162416281620A21DC
:10461000C162FEF7AFFA18B1FFE7FCF795F8FFE7C4
:1046200002B080BD80B582B040F6A400C2F20000A6
:10463000009043F60041C4F2000101604FF4827122
:104640004160002101918160C160016141614FF4CD
:1046500000728261C1610162416281620A21C162AC
:10466000FEF788FA18B1FFE7FCF76EF8FFE702B033
:1046700080BD000080B58EB005A801902421FBF715
:1046800081FE0199002202920492039240F6FC00FE
:10469000C2F200004FF080430360426082604FF03E
:1046A000FF33C36002618261012305930692079381
:1046B000089209920A920B930C920D92FEF7A4FDB8
:1046C00018B1FFE7FCF740F8FFE7002003900490E3
:1046D00040F6FC00C2F2000003A9FEF79BFB18B1F4
:1046E000FFE7FCF731F8FFE70EB080BD80B58EB074
:1046F000002100910D910C910B910A910991089163
:10470000079106910591049103910291019140F660
:104710004410C2F2000040F20042C4F20002026003
:10472000416081604FF6FF72C26001618161FEF7F6
:1047300003FC18B1FFE7FCF707F8FFE74FF48050E0
:104740000A9040F64410C2F200000AA9FEF79AFC53
:1047500018B1FFE7FBF7F8FFFFE740F64410C2F29D
:104760000000FEF7BFFF18B1FFE7FBF7EDFFFFE723
:1047700000200890099040F64410C2F2000008A9F9
:10478000FEF748FB18B1FFE7FBF7DEFFFFE760200D
:104790000190002202920392059240F64410C2F268
:1047A000000001A9FEF7FCFE18B1FFE7FBF7CCFF04
:1047B000FFE740F64410C2F2000001A90822FEF70C
:1047C000EFFE18B1FFE7FBF7BFFFFFE740F644102D
:1047D000C2F2000001A90C22FEF7E2FE18B1FFE7C9
:1047E000FBF7B2FFFFE740F64410C2F20000FEF70D
:1047F0004BFE0EB080BD000080B58EB005A80190C4
:104800002421FBF7BFFD019900220292049203923A
:1048100040F68C10C2F2000040F60003C4F2000320
:104820000360426082604FF6FF73C3600261826181
:104830000123059306920793089209920A920B931B
:104840000C920D92FEF7E0FC18B1FFE7FBF77CFF3E
:10485000FFE700200390049040F68C10C2F20000A5
:1048600003A9FEF7D7FA18B1FFE7FBF76DFFFFE7E3
:104870000EB080BD80B58EB0002100910D910C91DD
:104880000B910A9109910891079106910591049164
:1048900003910291019140F6D410C2F2000040F65B
:1048A0000042C4F200020260416081604FF0FF32BA
:1048B000C26001618161FEF73FFB18B1FFE7FBF7C2
:1048C00043FFFFE74FF480500A9040F6D410C2F245
:1048D00000000AA9FEF7D6FB18B1FFE7FBF734FF8B
:1048E000FFE740F6D410C2F20000FEF7FBFE18B15D
:1048F000FFE7FBF729FFFFE700200890099040F64B
:10490000D410C2F2000008A9FEF784FA18B1FFE73C
:10491000FBF71AFFFFE76020019000200290039050
:10492000059040F6D410C2F2000001A90822FEF75B
:1049300037FE18B1FFE7FBF707FFFFE740F6D4109B
:10494000C2F2000001A90C22FEF72AFE18B1FFE70F
:10495000FBF7FAFEFFE740F6D410C2F20000FEF7C4
:1049600093FD0EB080BD000080B58CB00021009199
:104970000B910A9109910891079106910591049173
:1049800003910291019140F61C20C2F2000044F212
:104990000002C4F201020260416081604FF6FF72C2
:1049A000C26001618161FEF7C7FA18B1FFE7FBF74A
:1049B000CBFEFFE74FF48050089040F61C20C2F277
:1049C000000008A9FEF75EFB18B1FFE7FBF7BCFE8D
:1049D000FFE740F61C20C2F20000FEF783FE18B18C
:1049E000FFE7FBF7B1FEFFE7602001900022029293
:1049F0000392059240F61C20C2F2000001A9FEF7C6
:104A0000CFFD18B1FFE7FBF79FFEFFE740F61C2044
:104A1000C2F2000001A90422FEF7C2FD18B1FFE7AF
:104A2000FBF792FEFFE740F61C20C2F20000FEF703
:104A30002BFD0CB080BD000080B582B040F63C304C
:104A4000C2F20000019044F60041C4F2000101608E
:104A50004FF4E131416000218160C16001610C22AD
:104A600042618161C161FFF7AFF818B1FFE7FBF761
:104A70006BFEFFE702B080BD80B582B040F66420D7
:104A8000C2F20000019041F20001C4F20101016094
:104A90004FF4E131416000218160C16001610C226D
:104AA00042618161C161FFF78FF818B1FFE7FBF741
:104AB0004BFEFFE702B080BD80B582B040F6AC206F
:104AC000C2F20000019044F20041C4F20001016012
:104AD0004FF4E131416000218160C16001610C222D
:104AE00042618161C161FFF76FF818B1FFE7FBF721
:104AF0002BFEFFE702B080BD80B582B040F6F42007
:104B0000C2F20000019044F60001C4F2000101600D
:104B10004FF4E131416000218160C16001610C22EC
:104B200042618161C161FFF74FF818B1FFE7FBF700
:104B30000BFEFFE702B080BD80B582B040F6843046
:104B4000C2F20000019041F20041C4F20101016093
:104B50004FF4E131416000218160C16001610C22AC
:104B600042618161C161FFF72FF818B1FFE7FBF7E0
:104B7000EBFDFFE702B080BD80B582B040F210309F
:104B8000C2F2000001904FF0A041016004210171C8
:104B90000222C2710021817142728172C17201735D
:104BA0008173C173FDF744F918B1FFE7FBF7CCFD42
:104BB000FFE702B080BD0000FFE7FEE7FFE7FEE78A
:104BC00088B0079006910592079800F007000490BE
:104BD0000498C0F10700052803D3FFE704200190E3
:104BE00004E00498C0F107000190FFE701980390EA
:104BF00004980430062803D8FFE70020009003E063
:104C0000049803380090FFE70098029006980399F3
:104C1000012202FA01F101390840029B98400599EE
:104C20009A40013A1140084308B0704770470000AD
:104C30007047000080B582B0009000980138B0F154
:104C4000807F03D3FFE70120019019E0009801382D
:104C50004EF21401CEF2000108604FF0FF300F2138
:104C600001F050F94EF21801CEF200010020086068
:104C70004EF21002CEF20002072111600190FFE710
:104C8000019802B080BD000080B5FDF71DF880BD21
:104C900080B594B008A83021FBF774FB0020079082
:104CA0000690059004900390FFE70020029043F6E1
:104CB0004000C4F20200016841F0805101600068C8
:104CC00000F0805002900298FFE7FFE7002001907B
:104CD00047F20000C4F20000016841F48041016025
:104CE000006800F4804001900198FFE701200890DF
:104CF0004FF48030099002200E904FF480010F9104
:104D00000C211091A821119112900720139008A84E
:104D1000FDF7D0FB18B1FFE7FBF716FDFFE70F200B
:104D2000039002200490002005904FF4A0500690BC
:104D30004FF48050079003A80521FDF7EBF918B157
:104D4000FFE7FBF701FDFFE714B080BD4EF6885189
:104D5000CEF20001086840F470000860704700005F
:104D600083B002900191029800680090029800219F
:104D7000C4F20101884225D0FFE70298B0F1804FCC
:104D800020D0FFE7029840F20041C4F200018842BF
:104D900018D0FFE7029840F60001C4F200018842F3
:104DA00010D0FFE7029840F60041C4F200018842AB
:104DB00008D0FFE7029840F20041C4F201018842A6
:104DC0000AD1FFE7009820F0700000900198416838
:104DD000009808430090FFE702980021C4F2010107
:104DE000884255D0FFE70298B0F1804F50D0FFE7DE
:104DF000029840F20041C4F20001884248D0FFE727
:104E0000029840F60001C4F20001884240D0FFE75A
:104E1000029840F60041C4F20001884238D0FFE712
:104E2000029840F20041C4F20101884230D0FFE70D
:104E3000029844F20001C4F20101884228D0FFE741
:104E4000029844F20041C4F20101884220D0FFE7F9
:104E5000029844F60001C4F20101884218D0FFE72D
:104E6000029841F60001C4F20001884210D0FFE729
:104E7000029841F60041C4F20001884208D0FFE7E1
:104E8000029842F20001C4F2000188420AD1FFE711
:104E9000009820F4407000900198C1680098084381
:104EA0000090FFE7009820F08000019949690843CD
:104EB0000090009802990860019880680299C86281
:104EC000019800680299886202980021C4F20101E9
:104ED000884208D0FFE7029840F20041C4F2010185
:104EE000884205D1FFE70198006902990863FFE74E
:104EF00002990120486102980069C00730B1FFE7BC
:104F00000299086920F001000861FFE703B07047CB
:104F100085B00490039102920193049880680090F8
:104F2000009820F47F40009003980299019A41EA8A
:104F3000022101430098084300900098049988607A
:104F400005B0704783B0029001910298806800908C
:104F5000009820F07000009001980099084340F0FC
:104F60000700009000980299886003B07047000025
:104F700085B0049003910498006A01900499086A2E
:104F800020F001000862049840680090049880694D
:104F90000290029820F070000290029820F0030026
:104FA000029003980168029808430290019820F04B
:104FB00002000190039881680198084301900498C9
:104FC0000021C4F20101884208D0FFE7049840F2B2
:104FD0000041C4F2010188420ED1FFE7019820F0A0
:104FE000080001900398C168019808430190019856
:104FF00020F004000190FFE704980021C4F20101B1
:10500000884208D0FFE7049840F20041C4F2010151
:10501000884213D1FFE7009820F480700090009838
:1050200020F40070009003984169009808430090B4
:1050300003988169009808430090FFE7009804995D
:10504000486002980499886103984068049948630D
:1050500001980499086205B07047000085B004907B
:1050600003910498006A01900499086A20F01000E6
:105070000862049840680090049880690290029841
:1050800020F4E0400290029820F4407002900398CF
:105090000168029840EA01200290019820F0200067
:1050A000019003988168019840EA011001900498EA
:1050B0000021C4F20101884208D0FFE7049840F2C1
:1050C0000041C4F2010188420FD1FFE7019820F0AE
:1050D000800001900398C168019840EA0110019096
:1050E000019820F040000190FFE704980021C4F2ED
:1050F0000101884208D0FFE7049840F20041C4F261
:105100000101884215D1FFE7009820F480600090EB
:10511000009820F40060009003984169009840EAEC
:105120008100009003988169009840EA8100009016
:10513000FFE70098049948600298049988610398F1
:1051400040680499886301980499086205B0704723
:1051500085B0049003910498006A01900499086A4C
:1051600020F4807008620498406800900498C06938
:105170000290029820F070000290029820F0030044
:10518000029003980168029808430290019820F465
:105190000070019003988168019840EA0120019015
:1051A00004980021C4F20101884208D0FFE7049866
:1051B00040F20041C4F2010188420FD1FFE701989B
:1051C00020F4006001900398C168019840EA012032
:1051D0000190019820F480600190FFE7049800217D
:1051E000C4F20101884208D0FFE7049840F2004170
:1051F000C4F20101884215D1FFE7009820F48050E5
:105200000090009820F400500090039841690098A5
:1052100040EA0110009003988169009840EA01106B
:105220000090FFE700980499486002980499C861CB
:10523000039840680499C86301980499086205B00E
:105240007047000085B0049003910498006A0190B3
:105250000499086A20F4805008620498406800901D
:105260000498C0690290029820F4E04002900298ED
:1052700020F44070029003980168029840EA0120EF
:105280000290019820F400500190039881680198E1
:1052900040EA0130019004980021C4F201018842E3
:1052A00008D0FFE7049840F20041C4F201018842AF
:1052B0000BD1FFE7009820F48040009003984169EB
:1052C000009840EA81100090FFE700980499486038
:1052D00002980499C8610398406804990864019889
:1052E0000499086205B0704785B00490039102925A
:1052F0000498006A00900499086A20F0010008628E
:10530000049880690190019820F0F00001900299C2
:10531000019840EA01100190009820F00A000090E6
:1053200003990098084300900198049988610098B7
:105330000499086205B0704785B004900391029209
:105340000498006A00900499086A20F0100008622E
:10535000049880690190019820F4704001900299AE
:10536000019840EA01300190009820F0A0000090E0
:105370000399009840EA011000900198049988610F
:1053800000980499086205B07047000080B582B0AB
:1053900001900198806B009000990020C8850099C9
:1053A000C8840098FEF7F6F902B080BD84B003907F
:1053B000FFE7FFE70398006850E8030F20F49070C0
:1053C0000290FFE702990398026842E80310002860
:1053D000F0D1FFE7FFE7FFE7FFE70398006850E839
:1053E000050F20F001000190FFE701990398026882
:1053F00042E805100028F0D1FFE7FFE70398006BB3
:10540000012814D1FFE7FFE7FFE70398006850E8A1
:10541000030F20F010000090FFE700990398026846
:1054200042E803100028F0D1FFE7FFE7FFE7039908
:10543000202081F8420003990020086304B07047DF
:1054400080B582B0019001980168C86820F04000E2
:10545000C8600199202081F841000198FEF740FEC4
:10546000002002B080BD000080B586B00490049892
:1054700090F84200222840F0A480FFE7049880685A
:10548000B0F5805F15D1FFE70498006988B9FFE7A0
:10549000002003900498806A029004980068406895
:1054A0006FF35F20029908800499886A023088624D
:1054B00025E00498806A0390002002900498806898
:1054C000B0F5805F08D0FFE70498806850B9FFE727
:1054D0000498006930B9FFE70498006840680399B0
:1054E000087007E004980068406800F07F000399A6
:1054F0000870FFE70499886A01308862FFE7049921
:10550000C88D0138C8850004002856D1FFE70498EB
:105510000168C86820F02000C86004980168C86865
:1055200020F48070C86004980168486920F0010088
:1055300048610499202081F84200049900204863C2
:105540000498006B012830D1FFE70499002008631C
:10555000FFE7FFE70498006850E8030F20F0100011
:105560000190FFE701990498026842E803100028BF
:10557000F0D1FFE7FFE7049800680068C006002844
:105580000ED5FFE7FFE70020009004980068006850
:10559000009004980068406800900098FFE7FFE7DB
:1055A0000498818DFEF7F0F803E00498FEF7FCFC08
:1055B000FFE700208DF8170007E000208DF81700A6
:1055C00003E002208DF81700FFE79DF8170006B0F2
:1055D00080BD000080B586B0059005980068006920
:1055E00020F44050059A1168D2681043086105996B
:1055F00088680B694A69C9691843104308430490D5
:1056000005980068C06849F20C6188430499084312
:1056100005990968C86005980068406920F44070E1
:10562000059A11689269104348610598006841F233
:105630000001C4F20101884209D0FFE70598006823
:1056400041F20041C4F20101884204D1FFE7FCF7B6
:10565000ABFE039003E0FCF795FE0390FFE705988F
:10566000C069B0F5004F29D1FFE703981921A0FBCD
:105670000101059A1368029353685A00DB0FFAF789
:1056800009FE0299864648F21F53C5F2EB13AEFBA2
:105690000320420910014FF0640C02FB1CEC322283
:1056A00002EBCC02A2FB0332F82303EA521300EB15
:1056B0004300C2F342121044886026E00398192187
:1056C000A0FB0101059A1368019353689A009B0F90
:1056D000FAF7E0FD0199844648F21F52C5F2EB1239
:1056E000ACFB02304309642003FB10CC322000EBFA
:1056F0000C10A0FB0202F02000EA521000EB031095
:10570000C2F3431210448860FFE706B080BD00007A
:1057100083B00190019890F8410021283AD1FFE729
:1057200001988068B0F5805F13D1FFE701980069A8
:1057300078B9FFE70198006A0090009800886FF33D
:105740005F200199096848600199086A023008627F
:1057500008E0019A106A411C1162007801990968F9
:105760004860FFE70199C88C0138C884000468B913
:10577000FFE701980168C86820F08000C8600198C0
:105780000168C86840F04000C860FFE700208DF85D
:105790000B0003E002208DF80B00FFE79DF80B00E3
:1057A00003B0704780B586B0DDF820C00490039147
:1057B0008DF80B200193FFE70498006800680399B7
:1057C0000840401AB0FA80F040099DF80B1088425A
:1057D0004DD1FFE708980130002847D0FFE7FCF7DC
:1057E00029F80199401A0899884203D8FFE70898D8
:1057F00020B9FFE703208DF817003CE0049800680B
:10580000C0684007002830D5FFE7039880282CD0D7
:10581000FFE70398402828D0FFE704980068006855
:1058200000F008010120B0EBD10F1DD1FFE7FFE729
:1058300000200090049800680068009004980068B8
:10584000406800900098FFE70498FFF7AFFD0499C7
:1058500008204864FFE70499002081F84000FFE732
:1058600001208DF8170006E0FFE7FFE7A4E700201E
:105870008DF81700FFE79DF8170006B080BD000007
:1058800080B540F6F420C2F20000FDF787FF80BD2E
:1058900080B58AB0DDF830C0CDF814C0049303920F
:1058A00002919DF814108DF824100299039A049B1C
:1058B00008930792069101909DF81D00012823D1BD
:1058C000FFE70199886B20F4803088630199C868EC
:1058D0004FF6BF72CFF6BD721040C8600199C8681C
:1058E00020F44010C8609DF82400012806D1FFE78D
:1058F0000199C86840F48010C860FFE7019800F083
:1059000033F88DF803001AE00199C86840F04000B0
:10591000C860019800F028F88DF803009DF8210078
:1059200030B9FFE70199886B40F48030886305E067
:105930000199886B20F480308863FFE7FFE79DF8CA
:105940001A0001280BD1FFE70199886840F0060092
:1059500088600199886840F020008860FFE79DF822
:1059600003000AB080BD000083B0019000200090C9
:10597000FFE70098013000900098B0F1706F04D9F3
:10598000FFE703208DF80B0026E0FFE70198006990
:10599000C00F0028EDD0FFE70020009001990869B2
:1059A00040F001000861FFE7009801300090009886
:1059B000B0F1706F04D9FFE703208DF80B000BE006
:1059C000FFE70198006900F001000128ECD0FFE733
:1059D00000208DF80B00FFE79DF80B0003B0704727
:1059E00082B00190019800900099D1F8000E20F04B
:1059F0000300C1F8000E0099D1F8040840F002003D
:105A0000C1F80408002002B07047000080B58CB0D7
:105A1000DDF838C0CDF81CC00693059204919DF8BE
:105A20001C108DF82C100499059A069B0A93099274
:105A30000891039000208DF80B00039901910090CC
:105A4000FFE700980E280CD8FFE70398009900EBB9
:105A500081010020C1F80401FFE7009801300090A7
:105A6000EFE79DF82A00B8B9FFE70199D1F80408DB
:105A700040F00200C1F804080399886B40F400105C
:105A800088630399886B20F4002088630399886BEE
:105A900020F4802088630AE00399886B20F40010CA
:105AA00088630399886B40F400208863FFE70199BD
:105AB0000020C1F8000E9DF8250001280FD1FFE756
:105AC0009DF8230028B9FFE70398002100F0E6F9CC
:105AD00004E00398012100F0E1F9FFE704E00398F6
